:040000008A11112828
:10000800FE00030E83120313AE000408AF000A08B3
:10001800B0007F08B1008A117A2F8A111328FC01D9
:10002800D901DA01DB01DC018313D4308400E53027
:100038008A155D2183018A159B2B83160313CE0035
:100048005A0883120313B200831603135B08831242
:100058000313B300831603135C0883120313B4005D
:100068000030B5000030B6000030B7008A15F7231D
:100078008A1103184728003083160313DA0000306A
:10008800DB000030DC00831603135A08A3005B086A
:10009800A4005C08A5004030A0001C30A100463038
:1000A800A2008A11A7268A11831603132008B0001C
:1000B8002108B1002208B2008A15A0268A118316E9
:1000C80003133308C1003208C0003108BF003008EC
:1000D800BE0000304102031D7B2800304002031D92
:1000E8007B2800303F02031D7B2864303E02031842
:1000F800B8285A0883120313BD00831603135B083C
:1001080083120313BE00831603135C0883120313C0
:10011800BF000030BA00C830BB004230BC008A15AE
:100128002E278A11831203133A0883160313B0008B
:10013800831203133B0883160313B10083120313BE
:100148003C0883160313B2008A15A0268A11831669
:1001580003133308C1003208C0003108BF0030085B
:10016800BE00CF01CF0AB928CF014108831203137B
:10017800C30083160313400883120313C2008316B7
:1001880003133F0883120313C100831603133E08A9
:1001980083120313C0000A30C4000030C500C43005
:1001A8008A1513268A1183160313C2014208C43E16
:1001B800840083138008031956290130831203131E
:1001C800D700570883160313C207DA284508831295
:1001D8000313D700570883160313C6004408831275
:1001E8000313D700570883160313C5003030831252
:1001F8000313D700570883160313C40007294F08B1
:10020800013A031D092970302229753022294F0827
:10021800013A031D112970303329753033294F08ED
:10022800013A031D192970304329753043294F08B5
:10023800013A031D21296E3022296D3083120313E0
:10024800D700570883160313D000C301C30ADE2959
:100258004F08013A031D32296E3033296D3083125D
:100268000313D700570883160313D00002304E2912
:100278004F08013A031D42296E3043296D3083121D
:100288000313D700570883160313D000C301DE29D0
:10029800D001033083120313D700570883160313C2
:1002A800C300DE294208023A0319EA28013A031971
:1002B8000329073A03190B29013A03191329033AA9
:1002C80003191B29013A03192C290F3A03193C2950
:1002D8004C29DE29C9014E0883120313D700570899
:1002E80083160313C800500883120313D700570856
:1002F80083160313C700E929CA014E0883120313A2
:10030800D700570883160313C90050088312031334
:10031800D700570883160313C8004608831203132F
:10032800D700570883160313C70045088312031321
:10033800D700570883160313C6002E308312031301
:10034800D700570883160313C500E929CA014E08C8
:1003580083120313D700570883160313C9005008E4
:1003680083120313D700570883160313C8004608DF
:1003780083120313D700570883160313C7002E30C0
:1003880083120313D700570883160313C600E929FD
:10039800C6014E0883120313D700570883160313A8
:1003A800C500303083120313D70057088316031390
:1003B800C400E9294308003A03196E29013A0319D0
:1003C8008029033A0319AA29CC29C43083120313BC
:1003D800B9000030BA0001308A1588250800831654
:1003E80003135E08033A031D452B5D08013A031DFC
:1003F800A62A5408A0005508A1005608A2005408CF
:1004080083120313B20083160313550883120313D0
:10041800B30083160313560883120313B4008A1516
:1004280065218A11831203133208CA003308CB00EE
:100438003408CC0083160313620883120313BA002E
:1004480083160313630883120313BB008316031375
:10045800640883120313BC00831603136208831213
:100468000313BD0083160313630883120313BE002E
:1004780083160313640883120313BF008A152E27FB
:100488008A11831203133A08CD003B08CE003C08BA
:10049800CF008A1197248A11831203134A088316FE
:1004A8000313A300831203134B0883160313A4003A
:1004B800831203134C0883160313A5008A11A72679
:1004C8008A11831603132008D1002108D2002208BC
:1004D800D3005F0883120313BA008316031360085E
:1004E80083120313BB0083160313610883120313DB
:1004F800BC0083160313510883120313BD0083162F
:100508000313520883120313BE0083160313530800
:1005180083120313BF008A152E278A11831203132F
:100528003A0883160313DA00831203133B08831671
:100538000313DB00831203133C0883160313DC0048
:1005480046303F2B83160313540883120313B2005B
:1005580083160313550883120313B300831603137A
:10056800560883120313B4008A1565218A11831271
:1005780003133208CA003308CB003408CC008316B2
:100588000313620883120313BA0083160313630864
:1005980083120313BB008316031364088312031327
:1005A800BC0083160313620883120313BD0083166D
:1005B8000313630883120313BE008316031364082E
:1005C80083120313BF008A152E278A11831203137F
:1005D8003A08CD003B08CE003C08CF008A1197248A
:1005E8008A11831203134A0883160313D100831256
:1005F80003134B0883160313D200831203134C080A
:1006080083160313D300570883120313BA00831603
:100618000313580883120313BB00831603135908E6
:1006280083120313BC0083160313510883120313A8
:10063800BD0083160313520883120313BE008316EA
:100648000313530883120313BF008A152E278A1138
:10065800831203133A0883160313DA008312031371
:100668003B0883160313DB00831203133C0883162D
:100678000313DC0048308A11212083160313DE019E
:1006880008005E08043A031D08005D08013A031DCE
:100698004F2B1230502B623083120313B900803075
:1006A800BA0001308A15882583160313DE01080075
:1006B800831203135C08023A031D7D2B8A11F92764
:1006C8008A118312031385103830B9008030BA00BC
:1006D80001308A1588258A1146308A15A9210330E8
:1006E80083120313D7005708DC0083160313DE01B7
:1006F800080083125C08033A031DD82B83160313E2
:100708005E08033A031DD12B831203138514831645
:100718000313620883120313BA00831603136308D2
:1007280083120313BB008316031364088312031395
:10073800BC0083160313620883120313BD008316DB
:100748000313630883120313BE008316031364089C
:1007580083120313BF008A152E278A1183120313ED
:100768003A0883160313D400831203133B08831635
:100778000313D500831203133C0883160313D60012
:1007880046308A15A9218A11043083120313D70031
:100798005708DC0083160313DE015E08043A031DC4
:1007A80008008A15F9210800831203135C08043A2B
:1007B800031D0800831603135E08033A031D902CDB
:1007C800831203138510831603135408A0005508D9
:1007D800A1005608A200540883120313B20083161E
:1007E8000313550883120313B30083160313560823
:1007F80083120313B4008A1565218A118312031327
:100808003208CA003308CB003408CC00831603131F
:10081800620883120313BA00831603136308831252
:100828000313BB0083160313640883120313BC006D
:1008380083160313620883120313BD008316031380
:10084800630883120313BE0083160313640883121C
:100858000313BF008A152E278A11831203133A083F
:10086800CD003B08CE003C08CF008A1197248A119E
:10087800831203134A0883160313A3008312031376
:100888004B0883160313A400831203134C08831622
:100898000313A5008A11A7268A11831603132008BB
:1008A800B0002108B1002208B2003008A0003108C9
:1008B800A1003208A2000030A3007A30A40044301E
:1008C800A5008A11A7268A11831603132008DF00C2
:1008D8002108E0002208E1005F08A0006008A100EC
:1008E8006108A200BA30A300BC30A4004030A500C3
:1008F8008A11A7268A11831603132008D700210816
:10090800D8002208D900053083120313D7005708EE
:10091800DC0083160313DE015E08043A031D080099
:100928008A15F9210800831203134A08D0004B08DE
:10093800D1004C08D2000310510D520DD3005308BA
:10094800D6004D08D0004E08D1004F08D200031041
:10095800510D520DD3005308D50056080319C02C69
:10096800550856020318C72C5603FF3A5507D000FE
:1009780019305002031CC72C4D08CA004E08CB0082
:100988004F08CC00080055080319080056085502FE
:100998000318D62C5503FF3A5607D00019305002D9
:1009A800031808000630D0005008D400CC1BD41718
:1009B800CF1B5417CB17FF30CA05FF30CB050030CB
:1009C800CC05CE17FF30CD05FF30CE050030CF0562
:1009D800550856020318162D01300310CD0DCE0D03
:1009E800CF0DFF3E031DF12C0130D50255085606E8
:1009F8000319112D0130D402540807390319112D98
:100A0800F02C01300310CC0CCB0CCA0CFF3E031D9C
:100A1800062D0130D0005008D60756085506031990
:100A28003F2D052D5608550203183F2D01300310A0
:100A3800CA0DCB0DCC0DFF3E031D1B2D0130D60278
:100A48005508560603193B2D0130D40254080739BE
:100A580003193B2D1A2D01300310CF0CCE0CCD0CF1
:100A6800FF3E031D302D0130D0005008D507560831
:100A78005506031D2F2DD41F512DFF30CA06FF30F8
:100A8800CB06FF30CC060130CA070030031801300E
:100A9800CB07003003180130CC07541F632DFF30FB
:100AA800CD06FF30CE06FF30CF060130CD0700302F
:100AB80003180130CE07003003180130CF07D401E6
:100AC8004A08CD074B08031103184B0A031DCE072C
:100AD8004C08031103184C0A031DCF07CF1F862D9E
:100AE800FF30CD06FF30CE06FF30CF060130CD07F0
:100AF800003003180130CE07003003180130CF074B
:100B0800D401D40A4D08B2004E08B3004F08B4000F
:100B18005608D0005008B5005408D1005108B60056
:100B28008A151E25831203133208CA003308CB0026
:100B38003408CC000800831203132008A6002108FB
:100B4800A7002208A8000310270D280DA9002908CE
:100B5800AC002308A6002408A7002508A800031055
:100B6800270D280DA9002908AB002C080319C82D4A
:100B78002B082C020318CF2D2C03FF3A2B07A600B5
:100B880019302602031CCF2D2308A0002408A10039
:100B98002508A20008002B08031908002C082B02BE
:100BA8000318DE2D2B03FF3A2C07A6001930260266
:100BB800031808000630A6002608AA00A21BAA17D8
:100BC800A51B2A17A117FF30A005FF30A10500308B
:100BD800A205A417FF30A305FF30A4050030A50522
:100BE8002B082C0203181E2E01300310A30DA40D90
:100BF800A50DFF3E031DF92D0130AB022B082C0675
:100C08000319192E0130AA022A0807390319192EC7
:100C1800F82D01300310A20CA10CA00CFF3E031DFF
:100C28000E2E0130A6002608AC072C082B06031947
:100C3800472E0D2E2C082B020318472E01300310C7
:100C4800A00DA10DA20DFF3E031D232E0130AC0205
:100C58002B082C060319432E0130AA022A0807394B
:100C68000319432E222E01300310A50CA40CA30C4B
:100C7800FF3E031D382E0130A6002608AB072C08BE
:100C88002B06031D372EAA1F592EFF30A006FF3052
:100C9800A106FF30A2060130A0070030031801307A
:100CA800A107003003180130A2072A1F6B2EFF305E
:100CB800A306FF30A406FF30A5060130A3070030C5
:100CC80003180130A407003003180130A507AA0152
:100CD8002008A307210803110318210A031DA407EC
:100CE800220803110318220A031DA507A51F8E2E2B
:100CF800FF30A306FF30A406FF30A5060130A30786
:100D0800003003180130A407003003180130A5078C
:100D1800AA01AA0A2308F0002408F1002508F20015
:100D28002C08A6002608F3002A08A7002708F400C4
:100D38008A15B624700883120313A0007108A10055
:100D48007208A2000800831603132308A6002408CB
:100D5800A7002508A8000310270D280DA9002908B9
:100D6800AE00AE08031DBF2E0030A0000030A10069
:100D78000030A20008002008A6002108A7002208C9
:100D8800A8000310270D280DA9002908AF00AF08F7
:100D9800031DD52E0030A0000030A1000030A200B5
:100DA80008000030AB000030AC000030AD008930E6
:100DB8002F07A6002608AE022308A6002408A700CD
:100DC8002508A80010300310A80CA70CA60CFF3E9D
:100DD800031DE72E2608A9002908AF002008A60051
:100DE8002108A7002208A80010300310A80CA70C9F
:100DF800A60CFF3E031DF92E2608A9002908AF06F8
:100E08008030A6002608AF05A417FF30A305FF30E1
:100E1800A4050030A505A117FF30A005FF30A105E6
:100E28000030A2051830A6002608AA0001300310D9
:100E3800AB0DAC0DAD0DFF3E031D1B2F2208250287
:100E4800031D2C2F21082402031D2C2F2008230208
:100E5800031C392F2008A3022108031C210FA40218
:100E68002208031C220AA5022B1401300310A30D2B
:100E7800A40DA50DFF3E031D3A2F0130AA02031D44
:100E88001A2F2B0883120313B200831603132C089E
:100E980083120313B300831603132D08831203135D
:100EA800B400831603132E08A60026088312031322
:100EB800B500831603132F08A7002708831203130E
:100EC800B6008A151E2583120313320883160313EE
:100ED800A00083120313330883160313A10083129F
:100EE8000313340883160313A20008000F08DA015D
:100EF800DA070E08D901D9070C1C872F0C1001300E
:100F0800AD002D08DB070B1DED2F0B118316031306
:100F18005E08013A031DAC2F831203135908F80029
:100F28005A08F9005B08FA008A157F218A117808A7
:100F380083160313E2007908E3007A08E40002301C
:100F480083120313AD002D0883160313DE00ED2F63
:100F58006208F0006308F1006408F2008A15552160
:100F68008A11700883120313A0007108A100720887
:100F7800A2005908F8005A08F9005B08FA008A1517
:100F88007F218A11780883120313A3007908A4002B
:100F98007A08A5008A119F258A1183120313200855
:100FA80083160313E2008312031321088316031325
:100FB800E30083120313220883160313E4000330AB
:100FC80083120313AD002D0883160313DE008B1262
:100FD8000C1083123108FF0030088A002F088400A3
:100FE8002E0E8300FE0E7E0E09008B12831603134D
:040FF8000C100800D1
:10100000FF1B0A2883137F1883170008840A03191B
:10101000FF0A080008308A000408840A82070034A6
:101020004C34433420344D34653474346534723474
:1010300020347634653472343A34423430343534C2
:1010400000344F347534743420346F3466342034B3
:10105000523461346E346734653400345334793437
:101060007334743465346D342034453472347234DE
:101070006F34723400344334613470346134633417
:101080006934743461346E34633465340034433409
:1010900061346C3469346234723461347434693468
:1010A0006E3467340034433461346C3469346234F0
:1010B00072346134743465343F34003449346E34EE
:1010C000643475346334743461346E346334653439
:1010D000003452346F3463346B34423465346534D5
:0E10E00000342D342D342D34003420340034EF
:1012AA00720871047004031908008030F2060800FD
:1012BA0064008001840A04060319003404065E29C6
:1012CA0083120313340833043204031908008030EC
:1012DA00B40608008312031310108E018F01DB017C
:1012EA000C10FA30810010140B118B16831603139D
:1012FA000C1408007808F0007908F1007A08F20066
:10130A008E30FB007B08F300F4018A15B6247008BE
:10131A00F8007108F9007208FA0008008312031332
:10132A00B6000612861636088A15B7228A1583125F
:10133A000313B500060830393504860086120D30CD
:10134A00B500B50BA629080083120313B400B50132
:10135A0034083502031808002730B300F530B2000C
:10136A00B20BB529B30BB529013083120313B200AE
:10137A003208B507AD2983160313DE08031DCA29EF
:10138A00DE01DE0A8A156F210800831203135B0847
:10139A00403A031D08008A11F92704308312031307
:1013AA00B200320883160313DE0008008312031307
:1013BA00050EB200320C01397C06031DE729121111
:1013CA0000300800121DF5298C1CF72912118C1007
:1013DA000030851A0130FC00851AF729013008000F
:1013EA0091011215003008008312031385101F3073
:1013FA0083120313B9008030BA0001308A15882598
:10140A008A150E308A15A9218A15663083120313AC
:10141A00B9008030BA0001308A1588258A1506304D
:10142A008A15A9218A15FC298B010B178316031328
:10143A008C01831203138C018B178316031381010A
:10144A008113831203138501F53083160313850074
:10145A00831203138601C030831603138600811694
:10146A00811107308104CF308312031390050330B2
:10147A009204120887393838920006309F00831682
:10148A0003139F01831203139701080083120313A6
:10149A00B800B70138080F39B5003508B700380861
:1014AA00B50004300310B50CFF3E031D572A35085A
:1014BA00B6003608B8000616861638088A15B72206
:1014CA008A1583120313B5000608303935048600DD
:1014DA008612861637088A15B7228A1583120313CD
:1014EA00B500060830393504860086120D30B5007D
:1014FA00B50B7D2A0800003083120313861B0130C6
:10150A00C6005C080319952A060D060D01398316D3
:10151A0003135D06031D932A003008008312031388
:10152A0083124608C500450883160313DD005D08CB
:10153A00013A031DA22A2C30A32A4F308312031327
:10154A00B9008030BA0000308A1588258A156630BD
:10155A0083120313B9008030BA0001308A15882536
:10156A000130080083120313B3003308B2003208B3
:10157A00B400341CC42A831203133416C72A8312F4
:10158A0003133412B41DCD2A831203133414D02A40
:10159A00831203133410341ED62A83120313B4158C
:1015AA00D92A83120313B411B41CDF2A831203133A
:1015BA003416E22A831203133412341DE82A8312E2
:1015CA000313B414EB2A83120313B410341EF12A42
:1015DA00831203133415F42A8312031334113408C3
:1015EA000F39B2003208B30033080800831203131C
:1015FA0035083404330432040319402BBB01BB0AF7
:10160A00B51B152B0130BA000310B20DB30DB40D82
:10161A00B50DBA0B092B0130BA003A08BB07052BE6
:10162A0035083902031D232B34083802031D232BE6
:10163A0033083702031D232B32083602031C332BCF
:10164A003208B6023308031C330FB7023408031CEE
:10165A00340FB8023508031C350FB90201300310E4
:10166A00B50CB40CB30CB20CFF3E031D342B013085
:10167A00BB02031D152B3908B5003808B40037081A
:10168A00B3003608B200080003308A1593218A1580
:10169A00063083120313B8005130B700B70B532B2F
:1016AA00B80B532B582B03308A1593218A152130F6
:1016BA0083120313B700B70B602B03308A159321EB
:1016CA008A1502308A1593218A1502308A159321C8
:1016DA008A1508308A1593218A1500308A159321B4
:1016EA008A1508308A1593218A1500308A159321A4
:1016FA008A1501308A1593218A15EA308312031359
:10170A00B700872B882BB70B862B000000308A1571
:10171A0093218A1506308A1593218A1500308A1575
:10172A0093218A150C308A15932108008A151922EB
:10173A008A1583120313DC0101308A15A9218A153F
:10174A008A1549238A155A3083120313B900803047
:10175A00BA0000308A1588258A15013083120313CE
:10176A00B9008030BA0001308A1588258A152130DF
:10177A008A15A9218A158A1580228A15013A031D1C
:10178A00C92B83120313DC0183120313DC08031D24
:10179A00DA2B4430B9008030BA0001308A15882526
:1017AA008A1583120313DC01DC0A8A15DB218A15E8
:1017BA00013A031DE62B023083120313D80058089E
:1017CA00DC00831203135C08053A031DF02B8A110F
:1017DA00F3218A15F32B8A115C238A158A15C021F5
:1017EA008A15C02B83120313B41F202C0030B800B3
:1017FA000030B9008030BA003209BB003309BC009E
:10180A003409BD00BB0A0319BC0A0319BD0A3B0807
:10181A00B8073C0803183C0F132C142CB9073D08D1
:10182A0003183D0F192C1A2CBA073808B2003908C8
:10183A00B3003A08B400B71F472C0030B800003094
:10184A00B9008030BA003509BB003609BC00370937
:10185A00BD00BB0A0319BC0A0319BD0A3B08B80735
:10186A003C0803183C0F3A2C3B2CB9073D080318D7
:10187A003D0F402C412CBA073808B5003908B6008C
:10188A003A08B7008030B4068030B7063708340209
:10189A00031D080036083302031D0800350832020A
:1018AA000800003083120313BE000030BD00003070
:1018BA00BC000030BB003508340433043204031979
:1018CA00AD2CBF01BF0AB51B782C0130BA0003103A
:1018DA00B20DB30DB40DB50DBA0B6C2C0130BA00B4
:1018EA003A08BF07682C0130BA000310BB0DBC0DC3
:1018FA00BD0DBE0DBA0B7A2C35083902031D8F2C8B
:10190A0034083802031D8F2C33083702031D8F2C2D
:10191A0032083602031CA02C3208B6023308031C14
:10192A00330FB7023408031C340FB8023508031CFE
:10193A00350FB9023B1401300310B50CB40CB30CCB
:10194A00B20CFF3E031DA12C0130BF02031D782CEF
:10195A003E08B5003D08B4003C08B3003B08B2009D
:10196A00080073080319BE2C720871047004031D61
:10197A00D12C0030F0000030F1000030F2000800F5
:10198A000130F5007508F30701300310F20CF10C71
:10199A00F00CFF3E031DCA2CFE3072050319EC2C15
:1019AA00C52C0130F5007508F3070130F007003047
:1019BA0003180130F107003003180130F207013033
:1019CA000310F20CF10CF00CFF3E031DE52CFF3066
:1019DA0072050319FB2CD62C0130F30201300310D7
:1019EA00F00DF10DF20DFF3E031DF42CF11FF12C49
:1019FA007318052DFF30F0057F30F105FF30F20531
:101A0A000310F30C7308F500F601F7011030031008
:101A1A00F50DF60DF70DFF3E031D0C2D7508F004AC
:101A2A007608F1047708F204740803190800F2171B
:101A3A0008008312031335080319282D34083304C8
:101A4A003204031D3B2D0030B2000030B3000030D9
:101A5A00B40008000130B7003708B5070130031099
:101A6A00B40CB30CB20CFF3E031D342DFE3034050A
:101A7A000319562D2F2D0130B7003708B50701304D
:101A8A00B207003003180130B307003003180130E1
:101A9A00B40701300310B40CB30CB20CFF3E031DA3
:101AAA004F2DFF3034050319652D402D0130B50245
:101ABA0001300310B20DB30DB40DFF3E031D5E2DB0
:101ACA00B31F5B2D35186F2DFF30B2057F30B3057C
:101ADA00FF30B4050310B50C3508B700B801B901D9
:101AEA0010300310B70DB80DB90DFF3E031D762D4A
:101AFA003708B2043808B3043908B404360803199D
:101B0A000800B417080083120313C000C401440874
:101B1A00390784003A0803183A0AFF008A15002098
:101B2A008A15003803199E2D0130BB003B08C407F3
:101B3A008C2D4408BB00BC01BB09BC09BB0A0319B4
:101B4A00BC0A3B08103EBD003C080318013E003E9B
:101B5A00BE003E0DBE0CBD0C3D08BF003F08C300D1
:101B6A00C008031DC42D08308A1593218A15003038
:101B7A008A1593218A1583120313C317D22D0C30A9
:101B8A008A1593218A1500308A1593218A15C03047
:101B9A0083120313BB003B08C304C1011030410286
:101BAA000318E52D20308A154B228A15013083123D
:101BBA000313BB003B08C10710304102031CD72D99
:101BCA004308BB0004300310BB0CFF3E031DE82D85
:101BDA003B088A1593218A158312031343080F3988
:101BEA008A1593218A1583120313C20144084202FB
:101BFA00031808004208390784003A0803183A0A09
:101C0A00FF008A1500208A158A154B228A15013091
:101C1A0083120313BB003B08C207FB2D8312031375
:101C2A00CC004308CA004208C9004108C80040085D
:101C3A00C7004408B2004508B3000030B31BFF30A8
:101C4A00B400B5004A08B9004908B8004808B70006
:101C5A004708B6008A1556248A15831203133508D5
:101C6A00CA003408C9003308C8003208C700013066
:101C7A00C6004608CC074A08490448044704031D1D
:101C8A001E2E4C088400831380010130CC024408C4
:101C9A00B2004508B3000030B31BFF30B400B500F2
:101CAA004308B9004208B8004108B7004008B60026
:101CBA008A15FB228A15831203133208C6004608C6
:101CCA00CB004408B2004508B3000030B31BFF3014
:101CDA00B400B5004308B9004208B8004108B7008B
:101CEA004008B6008A1556248A158312031335084C
:101CFA00C3003408C2003308C1003208C0000A30E9
:101D0A004B02031C8C2E0730C6004608CB07303026
:101D1A00C6004608CB074B08C6004C088400460894
:101D2A00831380000130CC0243084204410440047A
:101D3A00031908004C2E831603133008B400310827
:101D4A00B5003208B6000310350D360DB700370856
:101D5A00BD00BD08031DBA2E0030B3000030B2002A
:101D6A000030B1000030B00008003008B40031087B
:101D7A00B5003208B60017300310B60CB50CB40C17
:101D8A00FF3E031DC12E3408B7003708B800B1174B
:101D9A00FF30B005FF30B1050030B2053008B90098
:101DAA003108BA003208BB00BC018E30BD02BD1F2B
:101DBA00FC2E3D08803A8F3E0318EC2E0030B3000B
:101DCA000030B2000030B1000030B000080001302D
:101DDA000310BC0CBB0CBA0CB90CFF3E031DED2E54
:101DEA000130B4003408BD070319172FEC2E183040
:101DFA003D02031C142F0030B3000030B200003043
:101E0A00B1000030B00008000130B4000310B90D71
:101E1A00BA0DBB0DBC0DB40B0B2F0130BD02BD08B2
:101E2A00031D092F38080319252FB909BA09BB0957
:101E3A00BC09B90A0319BA0A0319BB0A0319BC0A6D
:101E4A003C08B3003B08B2003A08B1003908B000B8
:101E5A000800831203133A08C0003B08C1003C087B
:101E6A00C2000310410D420DC3004308C400C40858
:101E7A00031D462F0030BA000030BB000030BC0002
:101E8A0008003D08C0003E08C1003F08C200031018
:101E9A00410D420DC3004308C900C908031D5C2F48
:101EAA000030BA000030BB000030BC00080049080E
:101EBA007B3EC0004008C4073A08C0003B08C10086
:101ECA003C08C20010300310C20CC10CC00CFF3E0B
:101EDA00031D682F4008C3004308C9003D08C0001D
:101EEA003E08C1003F08C20010300310C20CC10CEA
:101EFA00C00CFF3E031D7A2F4008C3004308C906E1
:101F0A008030C0004008C905BB17BE17FF30BD05A9
:101F1A00FF30BE050030BF050030C5000030C600E6
:101F2A000030C7000730C0004008C8003A1CAB2F79
:101F3A003D08C5073E08031103183E0A031DC607DC
:101F4A003F08031103183F0A031DC7070130031096
:101F5A00BC0CBB0CBA0CFF3E031DAC2F01300310A6
:101F6A00BD0DBE0DBF0DFF3E031DB42F0130C802CB
:101F7A00031D9B2F0930C0004008C8003A1CD32F0C
:101F8A003D08C5073E08031103183E0A031DC6078C
:101F9A003F08031103183F0A031DC7070130031046
:101FAA00BC0CBB0CBA0CFF3E031DD42F013003102E
:101FBA00C70CC60CC50CFF3E031DDC2F0130C8023E
:101FCA00031DC32F4508B2004608B3004708B400F2
:101FDA004408C0004008B5004908C1004108B600DD
:101FEA008A151E25831203133208BA003308BB0070
:061FFA003408BC000800E1
:02400E0041FF70
:00000001FF
